:020000022000DC
:1060000000000420756302005D6302005F6302000C
:106010006163020063630200656302000000000028
:1060200000000000000000000000000085F00600F5
:106030006963020000000000A9F006006D63020021
:106040009D8404006F630200D18C04008DB50400B0
:10605000DD9804006F630200E9890400FD9B0400E1
:10606000F1A2040009A3040021A304006F6302004D
:106070006F63020049BB04006F6302006F6302009C
:106080006F630200ADF306006F6302006F630200EE
:106090006F630200B1A20500C1AC05006F6302008E
:1060A0006F6302006F63020039A3040051A3040070
:1060B0006F6302006F630200000000000000000038
:1060C0006F6302006F6302006F630200F1980400C7
:1060D0006F6302006F6302006F6302006F63020070
:1060E0006F6302006F6302006F6302000000000034
:1060F000000000006F630200000000000999040026
:10610000000000000000000000000000000000008F
:10611000000000000000000000000000000000007F
:10612000000000000000000000000000000000006F
:10613000000000000000000000000000000000005F
:10614000000000000000000000000000000000004F
:10615000000000000000000000000000000000003F
:10616000000000000000000000000000000000002F
:10617000000000000000000000000000000000001F
:10618000000000000000000000000000000000000F
:1061900000000000000000000000000000000000FF
:1061A00000000000000000000000000000000000EF
:1061B00000000000000000000000000000000000DF
:1061C00000000000000000000000000000000000CF
:1061D00000000000000000000000000000000000BF
:1061E00000000000000000000000000000000000AF
:1061F000000000000000000000000000000000009F
:10620000354936480A1A02D0072291438D4634494F
:1062100034480A1A06D00722914381F309880222E2
:1062200082F3148830483149314A00F044F831484B
:106230003149324A00F03FF831483249324A00F0E1
:106240003AF832483249334A00F035F83248334997
:10625000334A00F030F833483349344A00F02BF821
:1062600033483449344A00F026F83448344900228F
:1062700000F02CF833483449002200F027F8334866
:106280003349091A082902DB002202604160314AC1
:1062900090471F481F49884205D00268043003B464
:1062A000904703BCF7E700208646EC46002000211B
:1062B000294A9047FEE7884207D0521A05D0037852
:1062C00001300B700131013AF9D17047884202D098
:1062D00002700130FAE770470000042000E003205C
:1062E0000000042000000420981E0800D02A00208E
:1062F00034310020D4630200D4630200AC540700A0
:10630000981E0800D02A0020D02A002044560700FA
:1063100044560700445607004456070044560700F9
:10632000445607004456070044560700981E0800CC
:10633000FC240800343100203431002034310020A6
:10634000844F0220844F0220884F0220884F022071
:1063500088AF02209D630200B9480500FEE7FEE712
:10636000FEE7FEE7FEE7FEE7FEE7FEE7FEE7FEE705
:10637000704700BF1048804710484FF0070188431E
:1063800085460F4880470F48016841F4700101605D
:10639000BFF34F8FBFF36F8FFFF732BF0A480B4930
:1063A0000B4A884207D0521A05D0037801300B708F
:1063B0000131013AF9D170477163020000000420F5
:1063C0006176040088ED00E01C560700A82A002032
:0463D000D02A0020AF
:1063D400004870477C4F0220FEE70346084601212F
:1063E4004EF08BB884B001900091019B039304E0BC
:1063F400039B5A1C039200221A70009B5A1E00929F
:10640400002BF5D100BF00BF04B0704700B583B0C6
:1064140001904FF48C72002101984DF0C0FF00BF31
:1064240003B05DF804FB00B583B00190019B002B21
:1064340005D04FF48C710198FFF7D4FF00E000BF42
:1064440003B05DF804FB000086B003900291019252
:10645400019BB3F5807F12D0019BB3F5807F12D8E6
:10646400019B802B03D0019BC02B04D00BE0039B2A
:106474000A221A600AE0039B0C221A6006E0039BBE
:106484000E221A6002E06FF01F03A7E1039B08339A
:106494000493039B049A5A600023059327E0059B09
:1064A4009B00029A13441B781946059B9B000133F9
:1064B400029A13441B781B0241EA0302059B9B00CA
:1064C400023302990B441B781B0442EA0301059B27
:1064D4009B000333029A13441B781A06059B9B0006
:1064E400049803440A431A60059B01330593019BF6
:1064F4005B09059A9A42D2D3039B1B680E2B00F0CA
:10650400CA800E2B00F369810A2B02D00C2B57D0C2
:1065140063E1002305934FE0049B1A685F49059BE0
:1065240051F823305340049A0C321268120AD2B242
:106534005B498A5C5A40049B0C331B681B0CDBB21E
:106544005749CB5C1B025A40049B0C331B681B0E3F
:106554005349CB5C1B0482EA0301049B0C331B6884
:10656400DBB24F4AD35C1A06049B10334A401A60CC
:10657400049B04331968049B10331A68049B143376
:106584004A401A60049B08331968049B14331A6840
:10659400049B18334A401A60049B0C331968049B0B
:1065A40018331A68049B1C334A401A60059B013354
:1065B4000593049B10330493059B092BACD90CE180
:1065C4000023059363E0049B1A683449059B51F842
:1065D40023305340049A14321268120AD2B230495A
:1065E4008A5C5A40049B14331B681B0CDBB22C4995
:1065F400CB5C1B025A40049B14331B681B0E2849B6
:10660400CB5C1B0482EA0301049B14331B68DBB2DA
:10661400234AD35C1A06049B18334A401A60049B2D
:1066240004331968049B18331A68049B1C334A40CA
:106634001A60049B08331968049B1C331A68049B72
:1066440020334A401A60049B0C331968049B20339E
:106654001A68049B24334A401A60049B1033196857
:10666400049B24331A68049B28334A401A60049B11
:1066740014331968049B28331A68049B2C334A404A
:106684001A60059B01330593049B18330493059BFF
:10669400072B98D9A1E00023059399E044780700DB
:1066A40044560700049B1A684E49059B51F8233051
:1066B4005340049A1C321268120AD2B24A498A5CC4
:1066C4005A40049B1C331B681B0CDBB24649CB5C51
:1066D4001B025A40049B1C331B681B0E4249CB5CB3
:1066E4001B0482EA0301049B1C331B68DBB23E4A91
:1066F400D35C1A06049B20334A401A60049B04337B
:106704001968049B20331A68049B24334A401A6096
:10671400049B08331968049B24331A68049B2833A8
:106724004A401A60049B0C331968049B28331A6886
:10673400049B2C334A401A60049B10331B68049A50
:106744002C321268D2B228498A5C5A40049B2C33FA
:106754001B681B0ADBB22449CB5C1B025A40049B16
:106764002C331B681B0CDBB21F49CB5C1B0482EA75
:106774000301049B2C331B681B0E1B4AD35C1A06B3
:10678400049B30334A401A60049B14331968049BF9
:1067940030331A68049B34334A401A60049B18331C
:1067A4001968049B34331A68049B38334A401A60CE
:1067B400049B1C331968049B38331A68049B3C33CC
:1067C4004A401A60059B01330593049B20330493CC
:1067D400059B062B7FF666AF00BF0023184606B064
:1067E400704700BF447807004456070000B5D1B095
:1067F40003AB186002AB196001AB1A6005AB184615
:10680400FFF704FE03AB1B6808334D9303AB1B680F
:106814004D9A5A6001AA02AB05A812681968FFF7DD
:1068240013FE4B904B9B002B40F0998005AB1A68EC
:1068340003AB1B681A6005AB5A6805AB1B681B01E8
:1068440013444C934C9A131D4C934D9B191D4D911D
:1068540012681A604C9A131D4C934D9B191D4D914F
:1068640012681A604C9A131D4C934D9B191D4D913F
:1068740012681A604C9A131D4C934D9B191D4D912F
:1068840012681A6003AB1B681B68013B4F934C9B57
:10689400203B4C933FE000234E9333E04C9B1B681A
:1068A400DBB2344AD35C1A46334B53F822204C9B58
:1068B4001B681B0ADBB22F49CB5C19462F4B53F8DC
:1068C40021305A404C9B1B681B0CDBB22949CB5C22
:1068D40019462B4B53F8213082EA03014C9B1B6869
:1068E4001B0E244AD35C1A46264B53F822204D9B98
:1068F400181D4D904A401A604E9B01334E934C9B99
:1069040004334C934E9B032BC8DD4F9B013B4F93A9
:106914004C9B203B4C934F9B002BBCDC4C9A131D8F
:106924004C934D9B191D4D9112681A604C9A131D7E
:106934004C934D9B191D4D9112681A604C9A131D6E
:106944004C934D9B191D4D9112681A604C9A131D5E
:106954004C934D9B191D4D9112681A6000E000BFC5
:1069640005AB1846FFF75FFD4B9B184651B05DF829
:1069740004FB00BF4456070044680700446C07004A
:1069840044700700447407008EB003900291019292
:10699400039B5B680C93029B1B781A46029B013392
:1069A4001B781B021A43029B02331B781B041A43F5
:1069B400029B03331B781B0613430B930C9B1A1D7A
:1069C4000C921B680B9A53400B93029B04331B7865
:1069D4001A46029B05331B781B021A43029B06339B
:1069E4001B781B041A43029B07331B781B061343B3
:1069F4000A930C9B1A1D0C921B680A9A53400A9323
:106A0400029B08331B781A46029B09331B781B022E
:106A14001A43029B0A331B781B041A43029B0B3351
:106A24001B781B06134309930C9B1A1D0C921B68BD
:106A3400099A53400993029B0C331B781A46029B14
:106A44000D331B781B021A43029B0E331B781B0465
:106A54001A43029B0F331B781B06134308930C9BAA
:106A64001A1D0C921B68089A53400893039B1B68D9
:106A74005B10013B0D93FAE00C9B1A1D0C921A68F3
:106A84000B9BDBB2AC4951F823305A400A9B1B0ADA
:106A9400DBB2AA4951F823305A40099B1B0CDBB2E4
:106AA400A74951F823305A40089B1B0EA54951F8B9
:106AB4002330534007930C9B1A1D0C921A680A9BAF
:106AC400DBB29D4951F823305A40099B1B0ADBB2C3
:106AD4009A4951F823305A40089B1B0CDBB2984961
:106AE40051F823305A400B9B1B0E964951F8233022
:106AF400534006930C9B1A1D0C921A68099BDBB237
:106B04008D4951F823305A40089B1B0ADBB28B494C
:106B140051F823305A400B9B1B0CDBB2884951F8C7
:106B240023305A400A9B1B0E864951F823305340A8
:106B340005930C9B1A1D0C921A68089BDBB27E49C4
:106B440051F823305A400B9B1B0ADBB27B4951F8A6
:106B540023305A400A9B1B0CDBB2794951F823308D
:106B64005A40099B1B0E774951F823305340049334
:106B74000C9B1A1D0C921A68079BDBB26E4951F8E4
:106B840023305A40069B1B0ADBB26C4951F8233070
:106B94005A40059B1B0CDBB2694951F823305A401B
:106BA400049B1B0E674951F8233053400B930C9BF5
:106BB4001A1D0C921A68069BDBB25F4951F8233008
:106BC4005A40059B1B0ADBB25C4951F823305A40FA
:106BD400049B1B0CDBB25A4951F823305A40079BE3
:106BE4001B0E584951F8233053400A930C9B1A1D2D
:106BF4000C921A68059BDBB24F4951F823305A4076
:106C0400049B1B0ADBB24D4951F823305A40079BC1
:106C14001B0CDBB24A4951F823305A40069B1B0E29
:106C2400484951F82330534009930C9B1A1D0C9288
:106C34001A68049BDBB2404951F823305A40079B41
:106C44001B0ADBB23D4951F823305A40069B1B0C0A
:106C5400DBB23B4951F823305A40059B1B0E39499E
:106C640051F82330534008930D9B013B0D930D9B2A
:106C7400002B3FF701AF0C9B1A1D0C921A680B9B5B
:106C8400DBB22D4951F823305A400A9B1B0ADBB270
:106C94002A4951F823305A40099B1B0CDBB228497E
:106CA40051F823305A40089B1B0E264951F82330D3
:106CB400534007930C9B1A1D0C921A680A9BDBB273
:106CC4001D4951F823305A40099B1B0ADBB21B496A
:106CD40051F823305A40089B1B0CDBB2184951F879
:106CE40023305A400B9B1B0E164951F82330534056
:106CF40006930C9B1A1D0C921A68099BDBB20E4971
:106D040051F823305A40089B1B0ADBB20B4951F857
:106D140023305A400B9B1B0CDBB2094951F823303A
:106D24005A400A9B1B0E074951F8233053400593E0
:106D34000C9B1A1D08E000BF44570700445B070082
:106D4400445F0700446307000C921A68089BDBB297
:106D5400774951F823305A400B9B1B0ADBB2754923
:106D640051F823305A400A9B1B0CDBB2724951F88C
:106D740023305A40099B1B0E704951F8233053406D
:106D840004930C9B1A1D0C921B68079AD2B26C498F
:106D94008A5C5A40069B1B0ADBB26949CB5C1B0226
:106DA4005A40059B1B0CDBB26549CB5C1B045A4063
:106DB400049B1B0E6249CB5C1B0653400B930C9B3C
:106DC4001A1D0C921B68069AD2B25D498A5C5A401D
:106DD400059B1B0ADBB25A49CB5C1B025A40049B3D
:106DE4001B0CDBB25649CB5C1B045A40079B1B0EA1
:106DF4005349CB5C1B0653400A930C9B1A1D0C92FF
:106E04001B68059AD2B24E498A5C5A40049B1B0AFD
:106E1400DBB24B49CB5C1B025A40079B1B0CDBB219
:106E24004749CB5C1B045A40069B1B0E4449CB5C70
:106E34001B06534009930C9B1A1D0C921B68049A61
:106E4400D2B23F498A5C5A40079B1B0ADBB23C49D9
:106E5400CB5C1B025A40069B1B0CDBB23849CB5C53
:106E64001B045A40059B1B0E3549CB5C1B06534043
:106E740008930B9BDAB2019B1A700B9B1A0A019BB5
:106E84000133D2B21A700B9B1A0C019B0233D2B29B
:106E94001A700B9B1A0E019B0333D2B21A70019B1A
:106EA40004330A9AD2B21A700A9B1A0A019B053358
:106EB400D2B21A700A9B1A0C019B0633D2B21A7012
:106EC4000A9B1A0E019B0733D2B21A70019B083336
:106ED400099AD2B21A70099B1A0A019B0933D2B2D9
:106EE4001A70099B1A0C019B0A33D2B21A70099BBF
:106EF4001A0E019B0B33D2B21A70019B0C33089A01
:106F0400D2B21A70089B1A0A019B0D33D2B21A70BE
:106F1400089B1A0C019B0E33D2B21A70089B1A0EEE
:106F2400019B0F33D2B21A7000BF0EB0704700BF7E
:106F340044570700445B0700445F070044630700AD
:106F4400445607008EB0039002910192039B5B6844
:106F54000C93029B1B781A46029B01331B781B027D
:106F64001A43029B02331B781B041A43029B03330C
:106F74001B781B0613430B930C9B1A1D0C921B6866
:106F84000B9A53400B93029B04331B781A46029BC3
:106F940005331B781B021A43029B06331B781B0420
:106FA4001A43029B07331B781B0613430A930C9B5B
:106FB4001A1D0C921B680A9A53400A93029B0833C9
:106FC4001B781A46029B09331B781B021A43029B47
:106FD4000A331B781B041A43029B0B331B781B06D2
:106FE400134309930C9B1A1D0C921B68099A534076
:106FF4000993029B0C331B781A46029B0D331B78B2
:107004001B021A43029B0E331B781B041A43029B78
:107014000F331B781B06134308930C9B1A1D0C9209
:107024001B68089A53400893039B1B685B10013B41
:107034000D93FAE00C9B1A1D0C921A680B9BDBB2A1
:10704400AC4951F823305A40089B1B0ADBB2AA49C9
:1070540051F823305A40099B1B0CDBB2A74951F865
:1070640023305A400A9B1B0EA54951F82330534044
:1070740007930C9B1A1D0C921A680A9BDBB29D495C
:1070840051F823305A400B9B1B0ADBB29A4951F842
:1070940023305A40089B1B0CDBB2984951F823302B
:1070A4005A40099B1B0E964951F8233053400693CE
:1070B4000C9B1A1D0C921A68099BDBB28D4951F87E
:1070C40023305A400A9B1B0ADBB28B4951F8233008
:1070D4005A400B9B1B0CDBB2884951F823305A40B1
:1070E400089B1B0E864951F82330534005930C9B93
:1070F4001A1D0C921A68089BDBB27E4951F82330A2
:107104005A40099B1B0ADBB27B4951F823305A4091
:107114000A9B1B0CDBB2794951F823305A400B9B74
:107124001B0E774951F82330534004930C9B1A1DCE
:107134000C921A68079BDBB26E4951F823305A400F
:10714400049B1B0ADBB26C4951F823305A40059B5F
:107154001B0CDBB2694951F823305A40069B1B0EC5
:10716400674951F8233053400B930C9B1A1D0C9222
:107174001A68069BDBB25F4951F823305A40079BDB
:107184001B0ADBB25C4951F823305A40049B1B0CA8
:10719400DBB25A4951F823305A40059B1B0E58491B
:1071A40051F8233053400A930C9B1A1D0C921A6811
:1071B400059BDBB24F4951F823305A40069B1B0A0A
:1071C400DBB24D4951F823305A40079B1B0CDBB20C
:1071D4004A4951F823305A40049B1B0E484951F840
:1071E4002330534009930C9B1A1D0C921A68049B7C
:1071F400DBB2404951F823305A40059B1B0ADBB2ED
:107204003D4951F823305A40069B1B0CDBB23B49E5
:1072140051F823305A40079B1B0E394951F823304B
:10722400534008930D9B013B0D930D9B002B3FF79F
:1072340001AF0C9B1A1D0C921A680B9BDBB22D49F3
:1072440051F823305A40089B1B0ADBB22A4951F8F3
:1072540023305A40099B1B0CDBB2284951F82330D8
:107264005A400A9B1B0E264951F82330534007937A
:107274000C9B1A1D0C921A680A9BDBB21D4951F82B
:1072840023305A400B9B1B0ADBB21B4951F82330B5
:107294005A40089B1B0CDBB2184951F823305A4062
:1072A400099B1B0E164951F82330534006930C9B3F
:1072B4001A1D0C921A68099BDBB20E4951F823304F
:1072C4005A400A9B1B0ADBB20B4951F823305A403F
:1072D4000B9B1B0CDBB2094951F823305A40089B25
:1072E4001B0E074951F82330534005930C9B1A1D7C
:1072F40008E000BF44680700446C070044700700BE
:10730400447407000C921A68089BDBB2774951F861
:1073140023305A40099B1B0ADBB2754951F82330CC
:107324005A400A9B1B0CDBB2724951F823305A4075
:107334000B9B1B0E704951F82330534004930C9B54
:107344001A1D0C921B68079AD2B26C498A5C5A4087
:10735400049B1B0ADBB26949CB5C1B025A40059BA8
:107364001B0CDBB26549CB5C1B045A40069B1B0E0D
:107374006249CB5C1B0653400B930C9B1A1D0C9269
:107384001B68069AD2B25D498A5C5A40079B1B0A65
:10739400DBB25A49CB5C1B025A40049B1B0CDBB288
:1073A4005649CB5C1B045A40059B1B0E5349CB5CCE
:1073B4001B0653400A930C9B1A1D0C921B68059ADA
:1073C400D2B24E498A5C5A40069B1B0ADBB24B4937
:1073D400CB5C1B025A40079B1B0CDBB24749CB5CBE
:1073E4001B045A40049B1B0E4449CB5C1B065340B0
:1073F40009930C9B1A1D0C921B68049AD2B23F4944
:107404008A5C5A40059B1B0ADBB23C49CB5C1B02DD
:107414005A40069B1B0CDBB23849CB5C1B045A4018
:10742400079B1B0E3549CB5C1B06534008930B9BF3
:10743400DAB2019B1A700B9B1A0A019B0133D2B278
:107444001A700B9B1A0C019B0233D2B21A700B9B5D
:107454001A0E019B0333D2B21A70019B04330A9AA9
:10746400D2B21A700A9B1A0A019B0533D2B21A705F
:107474000A9B1A0C019B0633D2B21A700A9B1A0E8D
:10748400019B0733D2B21A70019B0833099AD2B216
:107494001A70099B1A0A019B0933D2B21A70099B0C
:1074A4001A0C019B0A33D2B21A70099B1A0E019B63
:1074B4000B33D2B21A70019B0C33089AD2B21A70F1
:1074C400089B1A0A019B0D33D2B21A70089B1A0C3E
:1074D400019B0E33D2B21A70089B1A0E019B0F3314
:1074E400D2B21A7000BF0EB0704700BF44680700E4
:1074F400446C0700447007004474070044670700A5
:1075040000B585B00390029101920093029B012B78
:1075140005D1009A01990398FFF736FA04E0009A1E
:1075240001990398FFF70EFD0023184605B05DF896
:1075340004FB00B58BB00390029101920093019B70
:1075440003F00F03002B02D06FF0210368E0029BCD
:10755400002B61D131E005AB10220C9918464CF098
:10756400F5FE0D9B0C9A02990398FFF7C9FF0023BF
:10757400099310E0099B0D9A13441978099B009A0A
:1075840013441A78099B0D9803444A40D2B21A70E6
:10759400099B01330993099B0F2BEBDD05AB1022EB
:1075A400194600984CF0D2FE0C9B10330C930D9BA3
:1075B40010330D93019B103B0193019B002BCAD107
:1075C4002DE00023099310E0099B0C9A13441978C9
:1075D400099B009A13441A78099B0D9803444A4066
:1075E400D2B21A70099B01330993099B0F2BEBDD6F
:1075F4000D9B0D9A02990398FFF782FF10220D99B3
:1076040000984CF0A3FE0C9B10330C930D9B10338D
:107614000D93019B103B0193019B002BD1D10023BF
:1076240018460BB05DF804FB84B001900091019BF7
:10763400039304E0039B5A1C039200221A70009BDC
:107644005A1E0092002BF5D100BF00BF04B0704752
:1076540084B0039002910192039B1B68029AD31A8F
:10766400002B02DC6FF05F03ACE0039B1B681B780C
:107674005BB2002B09DB039B1B68591C039A116046
:107684001B781A46019B1A6090E0039B1B681B78C9
:1076940003F07F03013B032B00F2858001A252F823
:1076A40023F000BFB9760200E57602001B770200E2
:1076B4005D770200039B1B68029AD31A012B02DC3C
:1076C4006FF05F037EE0039B1B6801331B781A464F
:1076D400019B1A60039B1B689A1C039B1A6065E05C
:1076E400039B1B68029AD31A022B02DC6FF05F0320
:1076F40068E0039B1B6801331B781B02039A126822
:10770400023212781A43019B1A60039B1B68DA1C2D
:10771400039B1A604AE0039B1B68029AD31A032B4B
:1077240002DC6FF05F034DE0039B1B6801331B78A1
:107734001A04039B1B6802331B781B021343039A2E
:107744001268033212781A43019B1A60039B1B6868
:107754001A1D039B1A6029E0039B1B68029AD31A23
:10776400042B02DC6FF05F032CE0039B1B680133E6
:107774001B781A06039B1B6802331B781B041A43ED
:10778400039B1B6803331B781B021343039A126881
:10779400043212781A43019B1A60039B1B685A1D1A
:1077A400039B1A6002E06FF063030BE0019B1B680C
:1077B400039A126802998A1A934202D96FF05F03FE
:1077C40000E00023184604B0704700BF00B585B040
:1077D4000390029101920093039B1B68029AD31AAF
:1077E400002B02DC6FF05F0314E0039B1B681B7823
:1077F4001A46009B934202D06FF061030AE0039B98
:107804001B685A1C039B1A60019A02990398FFF79C
:107814001FFF0346184605B05DF804FB00B587B0AA
:1078240003900291019204AA012302990398FFF79D
:10783400CDFF0590059B002B01D0059B16E0049B12
:10784400012B02D06FF0630310E0039B1B681B78CD
:10785400002B14BF01230023DBB21A46019B1A60DC
:10786400039B1B685A1C039B1A600023184607B02D
:107874005DF804FB00B587B003900291019204AA5D
:10788400022302990398FFF7A1FF0590059B002BA3
:1078940001D0059B26E0049B002B08D0049B042BFD
:1078A40005D8039B1B681B785BB2002B02DA6FF0D0
:1078B400630317E0019B00221A600DE0019B1B6823
:1078C4001B02039A126812781A43019B1A60039BE5
:1078D4001B685A1C039B1A60049B5A1E0492002BBB
:1078E400ECD10023184607B05DF804FB00B587B05F
:1078F40003900291019204AA022302990398FFF7CC
:1079040065FF0590059B002B01D0059B0EE0039BB2
:107914001B68049A1946019800F087FE0590039BA2
:107924001A68049B1A44039B1A60059B184607B007
:107934005DF804FB00B587B0039002910192019AAF
:10794400032302990398FFF741FF0590059B002B41
:1079540001D0059B30E0019B1B68002B02D16FF026
:107964005F0329E0019B1B685A1E019B1A60039B5D
:107974001B681A78019B1A71019B1B79072B02D98A
:107984006FF0630318E0039B1B685A1C039B1A6087
:10799400039B1A68019B9A60039B1A68019B1B68EE
:1079A4001A44039B1A60039B1B68029A9A4202D0F2
:1079B4006FF0650300E00023184607B05DF804FB90
:1079C40000B587B00390029101920323019A0299B2
:1079D4000398FFF7FBFE0590059B002B01D0059B48
:1079E40012E0019B1B68591E019A1160012B07D9F3
:1079F400039B1B68591C039A11601B78002B02D04F
:107A04006FF0670300E00023184607B05DF804FB3D
:107A140000B589B0039002910192009305AA302326
:107A240002990398FFF7D2FE0790079B002B01D021
:107A3400079B51E0039B1A68059B1344029A9A42E0
:107A440039D06FF0650347E0019B0693039B1B68E5
:107A54001B781A46069B1A60069B1A1D009B029906
:107A64000398FFF7B3FE0790079B002B01D0079BF9
:107A740032E0039B1A68069B9A60039B1A68069B74
:107A84005B681A44039B1A60039B1B68029A9A4220
:107A940011D9134B1B681021012098470246019B02
:107AA400DA60019BDB68002B02D16FF0690313E0FD
:107AB400019BDB680193039B1B68029A9A42C3D81B
:107AC400019B0022DA60039B1B68029A9A4202D04F
:107AD4006FF0650300E00023184609B05DF804FB6D
:107AE400D42A002000B587B003900291019200933C
:107AF40004AA302302990398FFF768FE0590059BBA
:107B0400002B01D0059B62E0039B1B68029AD31AE9
:107B1400002B02DC6FF05F0359E0039B1B681B78AA
:107B24001A46019B1A60039B1A68049B1344029330
:107B3400019B1A1D062302990398FFF747FE05903F
:107B4400059B002B01D0059B41E0039B1A68019B18
:107B54009A60039B1A68019B5B681A44039B1A6032
:107B6400039B1B68029A9A4205D10C210098FFF7E7
:107B74005BFD00232BE0039B1B681B781A46009BCC
:107B84001A60039B1B685A1C039B1A60009B0433F6
:107B94001A4602990398FFF75BFD0590059B002B9D
:107BA40001D0059B13E0039B1A68009B9A60039B1A
:107BB4001A68009B5B681A44039B1A60039B1B684A
:107BC400029A9A4202D06FF0650300E0002318463F
:107BD40007B05DF804FB86B00390029101924FF068
:107BE400FF330593019B7F2B14D8039B1A68029BD8
:107BF400D31A002B02DC6FF06B03D6E0039B1B68E7
:107C04005A1E039B1A60039B1B68019AD2B21A7016
:107C14000123CAE0019BFF2B1DD8039B1A68029B1A
:107C2400D31A012B02DC6FF06B03BEE0039B1B68CD
:107C34005A1E039B1A60039B1B68019AD2B21A70E6
:107C4400039B1B685A1E039B1A60039B1B688122BB
:107C54001A700223A9E0019BB3F5803F28D2039B4D
:107C64001A68029BD31A022B02DC6FF06B039CE0B0
:107C7400039B1B685A1E039B1A60039B1B68019A93
:107C8400D2B21A70019B190A039B1B685A1E039BEC
:107C94001A60039B1B68CAB21A70039B1B685A1EA6
:107CA400039B1A60039B1B6882221A7003237CE0E7
:107CB400019BB3F1807F33D2039B1A68029BD31AD2
:107CC400032B02DC6FF06B036FE0039B1B685A1EEF
:107CD400039B1A60039B1B68019AD2B21A70019B22
:107CE400190A039B1B685A1E039B1A60039B1B689B
:107CF400CAB21A70019B190C039B1B685A1E039B82
:107D04001A60039B1B68CAB21A70039B1B685A1E35
:107D1400039B1A60039B1B6883221A70042344E0AC
:107D2400019A059B9A423ED8039B1A68029BD31A78
:107D3400042B02DC6FF06B0337E0039B1B685A1EB5
:107D4400039B1A60039B1B68019AD2B21A70019BB1
:107D5400190A039B1B685A1E039B1A60039B1B682A
:107D6400CAB21A70019B190C039B1B685A1E039B11
:107D74001A60039B1B68CAB21A70019B190E039BFD
:107D84001B685A1E039B1A60039B1B68CAB21A70B5
:107D9400039B1B685A1E039B1A60039B1B68842267
:107DA4001A70052301E06FF06303184606B07047AC
:107DB40084B00390029113468DF80730039B1A6830
:107DC400029BD31A002B02DC6FF06B030AE0039BC7
:107DD4001B685A1E039B1A60039B1B689DF80720AF
:107DE4001A700123184604B0704700B587B0039099
:107DF4000291019200230493019800F009FC04907D
:107E0400039B1B68029A9A4207D8039B1A68029B39
:107E1400D31A1A46049B934202D96FF06B0353E0C2
:107E2400039B1A68049B5B421A44039B1A60039BDE
:107E34001B68049A1946019800F05FFC0590059BA5
:107E4400002B3FD1019B1B68012B1AD1039B1B689C
:107E54001B785BB2002B14DA039B1A68029BD31ABB
:107E6400002B02DC6FF06B032EE0039B1B685A1E91
:107E7400039B1A60039B1B6800221A70049B013346
:107E84000493049A02990398FFF7A5FE0590059BB5
:107E9400002B01DA059B17E0059B049A1344049315
:107EA400022202990398FFF783FF0590059B002B9C
:107EB40001DA059B08E0059B049A13440493049B90
:107EC400059300E000BF059B184607B05DF804FB6E
:107ED4008AB0039002910192009300230793079BB9
:107EE4000893089B09936FE00023069305E0099B20
:107EF40001330993069B01330693099A0A9B9A421C
:107F040005D2009A099B13441B78202BEFD0099AC1
:107F14000A9B9A425DD00A9A099BD31A012B0CD969
:107F2400009A099B13441B780D2B06D1099B01333E
:107F3400009A13441B780A2B40D0009A099B1344DF
:107F44001B780A2B3CD0069B002B02D06FF02B032E
:107F5400D0E0009A099B13441B783D2B08D1079B62
:107F640001330793079B022B02D96FF02B03C1E067
:107F7400009A099B13441B785BB2002B08DB009A20
:107F8400099B13441B781A465C4B9B5C7F2B02D1E4
:107F94006FF02B03AEE0009A099B13441B781A463A
:107FA400564B9B5C3F2B05D8079B002B02D06FF0F0
:107FB4002B039FE0089B0133089302E000BF00E01D
:107FC40000BF099B01330993099A0A9B9A428BD3F8
:107FD40000E000BF089B002B04D1019B00221A6023
:107FE400002387E0089BDA0813465B0013445B0018
:107FF4001946089B03F0070213465B0013445B0019
:108004000733DB080B440893089A079BD31A089399
:10801400039B002B03D0029A089B9A4205D2019B32
:10802400089A1A606FF0290364E00323079300237E
:108034000693069B0893039B059351E0009B1B78D2
:108044000D2B46D0009B1B780A2B42D0009B1B783B
:10805400202B3ED0009B1B781A46284B9B5C402B60
:108064000CBF01230023DBB21A46079B9B1A07931C
:10807400069B9A01009B1B781946204B5B5C03F01E
:108084003F0313430693089B01330893089B042B77
:1080940020D100230893079B002B06D0069B190CC4
:1080A400059B5A1C0592CAB21A70079B012B06D96C
:1080B400069B190A059B5A1C0592CAB21A70079BA3
:1080C400022B07D9059B5A1C0592069AD2B21A7044
:1080D40000E000BF099B013B0993009B013300931F
:1080E400099B002BAAD1059A039BD31A1A46019B1C
:1080F4001A60002318460AB0704700BF6C78070066
:1081040084B001900091019B039304E0039B1A1D2A
:10811400039200221A60009B5A1E0092002BF5D194
:1081240000BF00BF04B0704782B00190019B002BD8
:1081340009D0019B01221A60019B00225A60019B15
:1081440000229A6000E000BF02B0704700B583B01F
:108154000190019B002B1BD0019B9B68002B0DD031
:10816400019B9A68019B5B6819461046FFF7C8FF9C
:10817400094B1B68019A926810469847019B01229B
:108184001A60019B00225A60019B00229A6000E061
:1081940000BF03B05DF804FBD82A002000B585B009
:1081A40001900091009B42F21072934202D96FF049
:1081B4000F0332E0019B5B68009A9A422CD9194B59
:1081C4001B680421009898470390039B002B02D15D
:1081D4006FF00F0321E0019B9B68002B16D0019BDD
:1081E4009968019B5B689B001A4603984CF0AEF8B3
:1081F400019B9A68019B5B6819461046FFF780FF54
:10820400094B1B68019A926810469847019B009A93
:108214005A60019B039A9A600023184605B05DF8E2
:1082240004FB00BFD42A0020D82A002000B585B062
:1082340001900091019B5B68009A9A4205D30099D2
:108244000198FFF7ABFF03464AE0019B5B68013BE3
:1082540003930AE0019B9A68039B9B0013441B68E9
:10826400002B06D1039B013B0393039B002BF1D10D
:1082740000E000BF039B01330393039A009B9A42DF
:1082840001D2009B0393184B1B6804210398984761
:108294000290029B002B02D16FF00F0320E0019BA0
:1082A4009B68002B15D0019B9968039B9B001A4681
:1082B40002984CF04BF8019B9A68019B5B68194645
:1082C4001046FFF71DFF094B1B68019A9268104680
:1082D4009847019B039A5A60019B029A9A60002373
:1082E400184605B05DF804FBD42A0020D82A0020E3
:1082F40000B585B001900091019A009B9A4201D18A
:10830400002341E0009B9B68002B04D10198FFF7F8
:108314001DFF002338E0009B5B68013B03930AE0E8
:10832400009B9A68039B9B0013441B68002B06D197
:10833400039B013B0393039B002BF1D100E000BF9F
:10834400039B01330393009B1A68019B1A600399F2
:108354000198FFF723FF0290029B002B12D1019B8F
:108364009868019B5B689B001A4600214CF017F843
:10837400019B9868009B9968039B9B001A464BF0ED
:10838400E5FF00E000BF029B184605B05DF804FB62
:1083940000B587B00390029113468DF8073000238F
:1083A40004939DF807305B42DAB29DF8073013431B
:1083B400DBB2DB098DF80730029B5B681946039832
:1083C400FFF7ECFE0490049B002B55D1039B1B6824
:1083D4009DF80720C2F1010202FB03F2029B1B6815
:1083E4009DF8071001FB03F31A44039B1A60002352
:1083F40005931FE0039B9A68059B9B0013441B682D
:108404009DF80720C2F1010202FB03F1029B9A6866
:10841400059B9B0013441B689DF8072002FB03F295
:10842400039B9868059B9B0003440A441A60059BC0
:1084340001330593029B5B68059A9A42DAD315E0EF
:10844400039B9A68059B9B0013441A689DF80730A8
:10845400C3F101031846039B9968059B9B000B44D9
:1084640000FB02F21A60059B01330593039B5B68D2
:10847400059A9A42E4D300E000BF049B184607B073
:108484005DF804FB00B585B00190009101210198CD
:10849400FFF784FE0390039B002B1AD1019B98687D
:1084A400019B5B689B001A4600214BF078FF009B00
:1084B40083EAE372A2EBE372019B9B681A60009B60
:1084C400002B02DA4FF0FF3200E00122019B1A6018
:1084D40000E000BF039B184605B05DF804FB82B0C2
:1084E40001900091019B5B685B01009A9A4201D361
:1084F40000230DE0019B9A68009B5B099B001344D9
:108504001A68009B03F01F0322FA03F303F001032C
:10851400184602B0704786B00190002303930023ED
:1085240005931DE00023049314E0019B9A68059BC6
:108534009B0013441A68049B22FA03F303F001031B
:10854400002B01D0039B11E0049B01330493039B94
:1085540001330393049B1F2BE7D9059B0133059338
:10856400019B5B68059A9A42DCD30023184606B047
:10857400704784B001904FF00043029300230393AB
:108584000AE0019A029B1340002B09D1029B5B086D
:108594000293039B01330393039B1F2BF1D900E048
:1085A40000BF039B184604B0704700B585B0019026
:1085B400019B5B68002B01D1002325E0019B5B68D4
:1085C400013B03930AE0019B9A68039B9B001344BD
:1085D4001B68002B06D1039B013B0393039B002BD9
:1085E400F1D100E000BF019B9A68039B9B001344F8
:1085F4001B681846FFF7BDFF0346C3F1200302932F
:10860400039B5A01029B1344184605B05DF804FB12
:1086140000B583B001900198FFF7C7FF0346073305
:10862400DB08184603B05DF804FB00B589B003907D
:10863400029101920023049308E0029A049B1344DC
:108644001B78002B07D1049B01330493049A019BEC
:108654009A42F2D300E000BF019A049BD31A9B080C
:108664000199049A8A1A02F00302002A14BF012213
:108674000022D2B2134419460398FFF78FFD0790E6
:10868400079B002B31D100210398FFF7FBFE0790D5
:10869400079B002B2BD1019B0693002305931FE01E
:1086A400039B9A68059B23F0030313441968069BF4
:1086B400013B029A13441B781A46059BDB0003F026
:1086C40018039A40039B9868059B23F00303034413
:1086D4000A431A60069B013B0693059B01330593ED
:1086E400069A049B9A42DBD802E000BF00E000BF78
:1086F400079B184609B05DF804FB00B589B00390E8
:10870400029101920398FFF783FF0590019A059B5C
:108714009A4202D26FF0070329E0019A00210298DD
:108724004BF03DFE019B013B0793002306931AE0A7
:10873400039B9A68069B23F0030313441A68069B61
:10874400DB0003F0180322FA03F1029A079B134497
:10875400CAB21A70079B013B0793069B0133069329
:10876400059B013B0593059B002BE1D10023184693
:1087740009B05DF804FB00B589B0019000910023B5
:108784000593009B5B090493009B03F01F03039371
:108794000198FFF70AFF0246009B13440693019BCE
:1087A4005B685B01069A9A4212D9069B5B09069A9A
:1087B40002F01F02002A14BF01220022D2B2134485
:1087C40019460198FFF7EAFC0790079B002B6ED12E
:1087D40000230793049B002B2FD0019B5B68069317
:1087E40016E0019B9A680699049BCB1A03F1804317
:1087F400013B9B001A44019B9968069B03F180434B
:10880400013B9B000B4412681A60069B013B0693D4
:10881400069A049B9A42E4D80CE0019B9A68069B52
:1088240003F18043013B9B00134400221A60069B22
:10883400013B0693069B002BEFD1039B002B38D002
:10884400049B06932DE0019B9A68069B9B001344AE
:108854001A68039BC3F1200322FA03F30293019BDA
:108864009A68069B9B0013441968019B9A68069BAF
:108874009B001344039A01FA02F21A60019B9A685E
:10888400069B9B0013441968019B9A68069B9B00F6
:108894001344059A0A431A60029B0593069B01330D
:1088A4000693019B5B68069A9A42CCD301E000BF11
:1088B40000E000BF079B184609B05DF804FB00B553
:1088C40089B00190009100230693009B5B090593F6
:1088D400009B03F01F030493019B5B68059A9A4273
:1088E40007D8019B5B68059A9A4208D1049B002B28
:1088F40005D000210198FFF7C5FD034675E0059BEF
:10890400002B2AD00023079310E0019B9A68079953
:10891400059B0B449B001A44019B9968079B9B0091
:108924000B4412681A60079B01330793019B5A6832
:10893400059BD31A079A9A42E7D309E0019B9A68E8
:10894400079B9B00134400221A60079B0133079383
:10895400019B5B68079A9A42F0D3049B002B43D097
:10896400019B5B6807933CE0019B9A68079B03F1BA
:108974008043013B9B0013441A68049BC3F120030A
:1089840002FA03F30393019B9A68079B03F1804364
:10899400013B9B0013441968019B9A68079B03F1F0
:1089A4008043013B9B001344049A21FA02F21A60AB
:1089B400019B9A68079B03F18043013B9B0013448E
:1089C4001968019B9A68079B03F18043013B9B0054
:1089D4001344069A0A431A60039B0693079B013BC0
:1089E4000793079B002BBFD10023184609B05DF8FD
:1089F40004FB84B001900091019B5B6803930DE03C
:108A0400019B9A68039B03F18043013B9B00134441
:108A14001B68002B06D1039B013B0393039B002B94
:108A2400EED100E000BF009B5B6802930DE0009B69
:108A34009A68029B03F18043013B9B0013441B682B
:108A4400002B06D1029B013B0293029B002BEED12B
:108A540000E000BF039B002B04D1029B002B01D13B
:108A6400002340E0039A029B9A4201D901233AE091
:108A7400029A039B9A4232D94FF0FF3333E0019BB1
:108A84009A68039B03F18043013B9B0013441A68DB
:108A9400009B9968039B03F18043013B9B000B44BB
:108AA4001B689A4201D901231DE0019B9A68039B2C
:108AB40003F18043013B9B0013441A68009B9968AF
:108AC400039B03F18043013B9B000B441B689A42C8
:108AD40002D24FF0FF3306E0039B013B0393039B59
:108AE400002BCCD10023184604B0704784B0019009
:108AF4000091019B5B6803930DE0019B9A68039BC3
:108B040003F18043013B9B0013441B68002B06D1F7
:108B1400039B013B0393039B002BEED100E000BFBA
:108B2400009B5B6802930DE0009B9A68029B03F133
:108B34008043013B9B0013441B68002B06D1029B1E
:108B4400013B0293029B002BEED100E000BF039B8C
:108B5400002B04D1029B002B01D1002359E0039A7E
:108B6400029B9A4202D9019B1B6852E0029A039B22
:108B74009A4203D9009B1B685B424AE0019B1B6835
:108B8400002B05DD009B1B68002B01DA012340E06C
:108B9400009B1B68002B38DD019B1B68002B34DA1B
:108BA4004FF0FF3335E0019B9A68039B03F1804348
:108BB400013B9B0013441A68009B9968039B03F1D3
:108BC4008043013B9B000B441B689A4202D9019BE2
:108BD4001B681EE0019B9A68039B03F18043013BE1
:108BE4009B0013441A68009B9968039B03F180431C
:108BF400013B9B000B441B689A4203D2019B1B68F8
:108C04005B4206E0039B013B0393039B002BCAD109
:108C14000023184604B0704700B587B00190009156
:108C2400009B002BB8BF5B420293009B002B02DA2F
:108C34004FF0FF3300E0012303930123049302ABBD
:108C4400059303AB19460198FFF750FF03461846F6
:108C540007B05DF804FB00B58DB00390029101925A
:108C6400039A019B9A4205D1029B0593039B0293AD
:108C7400059B0193039A029B9A4208D00299039898
:108C8400FFF736FB0B900B9B002B40F08D80039B72
:108C940001221A60019B5B6809930DE0019B9A68AD
:108CA400099B03F18043013B9B0013441B68002B89
:108CB40006D1099B013B0993099B002BEED100E0EF
:108CC40000BF09990398FFF769FA0B900B9B002BDF
:108CD4006CD1019B9B680893039B9B6807930023BB
:108CE400069300230A932CE0089B1B680493079BBC
:108CF4001A68069B1A44079B1A60079B1B68069A0E
:108D04009A428CBF01230023DBB20693079B1A68A7
:108D1400049B1A44079B1A60079B1B68049A9A4297
:108D24008CBF01230023DBB21A46069B134406932F
:108D34000A9B01330A93089B04330893079B04336B
:108D440007930A9A099B9A42CED329E0039B5B6856
:108D54000A9A9A420FD30A9B013319460398FFF7E4
:108D64001DFA0B900B9B002B22D1039B9A680A9B44
:108D74009B0013440793079B1A68069B1A44079B9E
:108D84001A60079B1B68069A9A428CBF0123002332
:108D9400DBB206930A9B01330A93079B04330793C0
:108DA400069B002BD2D104E000BF02E000BF00E02C
:108DB40000BF0B9B18460DB05DF804FB88B0039010
:108DC4000291019200230693069B07932BE0019BDB
:108DD4001B68069A9A428CBF01230023DBB20593D9
:108DE400019B1A68069BD21A019B1A60019B1A68A0
:108DF400029B1B689A4234BF01230023DBB21A464C
:108E0400059B13440693019B1A68029B1B68D21AA4
:108E1400019B1A60079B01330793029B043302935F
:108E2400019B04330193079A039B9A42CFD316E024
:108E3400019B1B68069A9A428CBF01230023DBB274
:108E44000593019B1A68069BD21A019B1A60059B25
:108E54000693079B01330793019B04330193069BFD
:108E6400002BE5D100BF00BF08B0704700B58BB040
:108E740003900291019201990298FFF7BAFD03460B
:108E8400002B02DA6FF009034BE005AB1846FFF73D
:108E94004BF9039A019B9A420AD105AB01991846F2
:108EA400FFF726FA0990099B002B32D105AB0193F9
:108EB400039A029B9A4207D002990398FFF718FA83
:108EC4000990099B002B26D1039B01221A600023E1
:108ED4000993019B5B6808930DE0019B9A68089BCA
:108EE40003F18043013B9B0013441B68002B06D114
:108EF400089B013B0893089B002BEED100E000BFC8
:108F0400019B9968039B9B681A460898FFF756FFD4
:108F140002E000BF00E000BF05AB1846FFF716F9FA
:108F2400099B18460BB05DF804FB00B587B00390AD
:108F340002910192029B1B680493029B1B68019A95
:108F4400126802FB03F3002B21DA01990298FFF760
:108F540050FD0346002B0CDB019A02990398FFF79E
:108F640085FF0590059B002B1ED1039B049A1A6074
:108F74001FE0029A01990398FFF778FF0590059B7B
:108F8400002B13D1049B5A42039B1A6011E0019AEF
:108F940002990398FFF75FFE0590059B002B07D10C
:108FA400039B049A1A6004E000BF02E000BF00E0E3
:108FB40000BF059B184607B05DF804FB00B587B0F9
:108FC400039002910192029B1B680493029B1B680D
:108FD400019A126802FB03F3002B21DD0199029828
:108FE400FFF707FD0346002B0CDB019A0299039857
:108FF400FFF73CFF0590059B002B1ED1039B049AB1
:109004001A601FE0029A01990398FFF72FFF059059
:10901400059B002B13D1049B5A42039B1A6011E059
:10902400019A02990398FFF716FE0590059B002B01
:1090340007D1039B049A1A6004E000BF02E000BF5A
:1090440000E000BF059B184607B05DF804FB00B5BF
:1090540089B0039002910192019B002BB8BF5B423F
:109064000493019B002B02DA4FF0FF3300E001234D
:1090740005930123069304AB079305AB1A460299A3
:109084000398FFF79BFF0346184609B05DF804FBFD
:1090940030B492B003900291019200930023119393
:1090A4000023109300F0B3BC029B1A1D02921B68AC
:1090B40018464FF00001009B1A464FF0000302FBD4
:1090C40001F500FB03F42C44A0FB0223E1180B463A
:1090D400CDE90623CDE90623069B0593DDE90601C8
:1090E4004FF000024FF000030A00002313460493DC
:1090F400059A119B13440593059A119B9A4234BF18
:1091040001230023DBB21A46049B13440493019BFE
:109114001B68059A13440593019B1B68059A9A42A0
:1091240034BF01230023DBB21A46049B1344049387
:10913400049B1193019B1A1D0192059A1A60029BCC
:109144001A1D02921B6818464FF00001009B1A4634
:109154004FF0000302FB01F500FB03F42C44A0FBD9
:109164000223E1180B46CDE90623CDE90623069B2D
:109174000593DDE906014FF000024FF000030A00F9
:10918400002313460493059A119B13440593059AEF
:10919400119B9A4234BF01230023DBB21A46049B7D
:1091A40013440493019B1B68059A13440593019B84
:1091B4001B68059A9A4234BF01230023DBB21A4686
:1091C400049B13440493049B1193019B1A1D019265
:1091D400059A1A60029B1A1D02921B6818464FF0EA
:1091E4000001009B1A464FF0000302FB01F500FB4F
:1091F40003F42C44A0FB0223E1180B46CDE906231B
:10920400CDE90623069B0593DDE906014FF0000234
:109214004FF000030A00002313460493059A119BA0
:1092240013440593059A119B9A4234BF01230023EA
:10923400DBB21A46049B13440493019B1B68059AF2
:1092440013440593019B1B68059A9A4234BF01237A
:109254000023DBB21A46049B13440493049B11932A
:10926400019B1A1D0192059A1A60029B1A1D029213
:109274001B6818464FF00001009B1A464FF000038C
:1092840002FB01F500FB03F42C44A0FB0223E118CC
:109294000B46CDE90623CDE90623069B0593DDE9BC
:1092A40006014FF000024FF000030A0000231346AA
:1092B4000493059A119B13440593059A119B9A42B2
:1092C40034BF01230023DBB21A46049B13440493E6
:1092D400019B1B68059A13440593019B1B68059A1F
:1092E4009A4234BF01230023DBB21A46049B134481
:1092F4000493049B1193019B1A1D0192059A1A6011
:10930400029B1A1D02921B6818464FF00001009B35
:109314001A464FF0000302FB01F500FB03F42C4452
:10932400A0FB0223E1180B46CDE90623CDE9062371
:10933400069B0593DDE906014FF000024FF00003A0
:109344000A00002313460493059A119B13440593C2
:10935400059A119B9A4234BF01230023DBB21A46BB
:10936400049B13440493019B1B68059A13440593BF
:10937400019B1B68059A9A4234BF01230023DBB288
:109384001A46049B13440493049B1193019B1A1DD6
:109394000192059A1A60029B1A1D02921B681846D4
:1093A4004FF00001009B1A464FF0000302FB01F549
:1093B40000FB03F42C44A0FB0223E1180B46CDE987
:1093C4000623CDE90623069B0593DDE906014FF04C
:1093D40000024FF000030A00002313460493059A89
:1093E400119B13440593059A119B9A4234BF0123A0
:1093F4000023DBB21A46049B13440493019B1B68AD
:10940400059A13440593019B1B68059A9A4234BF3D
:1094140001230023DBB21A46049B13440493049BE8
:109424001193019B1A1D0192059A1A60029B1A1D41
:1094340002921B6818464FF00001009B1A464FF039
:10944400000302FB01F500FB03F42C44A0FB022300
:10945400E1180B46CDE90623CDE90623069B0593C7
:10946400DDE906014FF000024FF000030A0000237B
:1094740013460493059A119B13440593059A119B73
:109484009A4234BF01230023DBB21A46049B1344DF
:109494000493019B1B68059A13440593019B1B6865
:1094A400059A9A4234BF01230023DBB21A46049B77
:1094B40013440493049B1193019B1A1D0192059A72
:1094C4001A60029B1A1D02921B6818464FF0000195
:1094D400009B1A464FF0000302FB01F500FB03F466
:1094E4002C44A0FB0223E1180B46CDE90623CDE969
:1094F4000623069B0593DDE906014FF000024FF0B9
:1095040000030A00002313460493059A119B134495
:109514000593059A119B9A4234BF01230023DBB2C1
:109524001A46049B13440493019B1B68059A134435
:109534000593019B1B68059A9A4234BF01230023BB
:10954400DBB21A46049B13440493049B1193019BBE
:109554001A1D0192059A1A60029B1A1D02921B6839
:1095640018464FF00001009B1A464FF0000302FB1F
:1095740001F500FB03F42C44A0FB0223E1180B4685
:10958400CDE90623CDE90623069B0593DDE9060113
:109594004FF000024FF000030A0000231346049327
:1095A400059A119B13440593059A119B9A4234BF63
:1095B40001230023DBB21A46049B13440493019B4A
:1095C4001B68059A13440593019B1B68059A9A42EC
:1095D40034BF01230023DBB21A46049B13440493D3
:1095E400049B1193019B1A1D0192059A1A60029B18
:1095F4001A1D02921B6818464FF00001009B1A4680
:109604004FF0000302FB01F500FB03F42C44A0FB24
:109614000223E1180B46CDE90623CDE90623069B78
:109624000593DDE906014FF000024FF000030A0044
:10963400002313460493059A119B13440593059A3A
:10964400119B9A4234BF01230023DBB21A46049BC8
:1096540013440493019B1B68059A13440593019BCF
:109664001B68059A9A4234BF01230023DBB21A46D1
:10967400049B13440493049B1193019B1A1D0192B0
:10968400059A1A60029B1A1D02921B6818464FF035
:109694000001009B1A464FF0000302FB01F500FB9A
:1096A40003F42C44A0FB0223E1180B46CDE9062366
:1096B400CDE90623069B0593DDE906014FF0000280
:1096C4004FF000030A00002313460493059A119BEC
:1096D40013440593059A119B9A4234BF0123002336
:1096E400DBB21A46049B13440493019B1B68059A3E
:1096F40013440593019B1B68059A9A4234BF0123C6
:109704000023DBB21A46049B13440493049B119375
:10971400019B1A1D0192059A1A60029B1A1D02925E
:109724001B6818464FF00001009B1A464FF00003D7
:1097340002FB01F500FB03F42C44A0FB0223E11817
:109744000B46CDE90623CDE90623069B0593DDE907
:1097540006014FF000024FF000030A0000231346F5
:109764000493059A119B13440593059A119B9A42FD
:1097740034BF01230023DBB21A46049B1344049331
:10978400019B1B68059A13440593019B1B68059A6A
:109794009A4234BF01230023DBB21A46049B1344CC
:1097A4000493049B1193019B1A1D0192059A1A605C
:1097B400029B1A1D02921B6818464FF00001009B81
:1097C4001A464FF0000302FB01F500FB03F42C449E
:1097D400A0FB0223E1180B46CDE90623CDE90623BD
:1097E400069B0593DDE906014FF000024FF00003EC
:1097F4000A00002313460493059A119B134405930E
:10980400059A119B9A4234BF01230023DBB21A4606
:10981400049B13440493019B1B68059A134405930A
:10982400019B1B68059A9A4234BF01230023DBB2D3
:109834001A46049B13440493049B1193019B1A1D21
:109844000192059A1A60029B1A1D02921B6818461F
:109854004FF00001009B1A464FF0000302FB01F594
:1098640000FB03F42C44A0FB0223E1180B46CDE9D2
:109874000623CDE90623069B0593DDE906014FF097
:1098840000024FF000030A00002313460493059AD4
:10989400119B13440593059A119B9A4234BF0123EB
:1098A4000023DBB21A46049B13440493019B1B68F8
:1098B400059A13440593019B1B68059A9A4234BF89
:1098C40001230023DBB21A46049B13440493049B34
:1098D4001193019B1A1D0192059A1A60029B1A1D8D
:1098E40002921B6818464FF00001009B1A464FF085
:1098F400000302FB01F500FB03F42C44A0FB02234C
:10990400E1180B46CDE90623CDE90623069B059312
:10991400DDE906014FF000024FF000030A000023C6
:1099240013460493059A119B13440593059A119BBE
:109934009A4234BF01230023DBB21A46049B13442A
:109944000493019B1B68059A13440593019B1B68B0
:10995400059A9A4234BF01230023DBB21A46049BC2
:1099640013440493049B1193019B1A1D0192059ABD
:109974001A60029B1A1D02921B6818464FF00001E0
:10998400009B1A464FF0000302FB01F500FB03F4B1
:109994002C44A0FB0223E1180B46CDE90623CDE9B4
:1099A4000623069B0593DDE906014FF000024FF004
:1099B40000030A00002313460493059A119B1344E1
:1099C4000593059A119B9A4234BF01230023DBB20D
:1099D4001A46049B13440493019B1B68059A134481
:1099E4000593019B1B68059A9A4234BF0123002307
:1099F400DBB21A46049B13440493049B1193019B0A
:109A04001A1D0192059A1A60039B103B0393039B52
:109A14000F2B3FF649AB5AE2029B1A1D02921B68B8
:109A240018464FF00001009B1A464FF0000302FB5A
:109A340001F500FB03F42C44A0FB0223E1180B46C0
:109A4400CDE90A23CDE90A230A9B0993DDE90A013A
:109A54004FF000024FF000030A000023134608935E
:109A6400099A119B13440993099A119B9A4234BF92
:109A740001230023DBB21A46089B13440893019B7D
:109A84001B68099A13440993019B1B68099A9A421B
:109A940034BF01230023DBB21A46089B1344089306
:109AA400089B1193019B1A1D0192099A1A60029B4B
:109AB4001A1D02921B6818464FF00001009B1A46BB
:109AC4004FF0000302FB01F500FB03F42C44A0FB60
:109AD4000223E1180B46CDE90A23CDE90A230A9BA8
:109AE4000993DDE90A014FF000024FF000030A0078
:109AF400002313460893099A119B13440993099A66
:109B0400119B9A4234BF01230023DBB21A46089BFF
:109B140013440893019B1B68099A13440993019BFE
:109B24001B68099A9A4234BF01230023DBB21A4608
:109B3400089B13440893089B1193019B1A1D0192DF
:109B4400099A1A60029B1A1D02921B6818464FF06C
:109B54000001009B1A464FF0000302FB01F500FBD5
:109B640003F42C44A0FB0223E1180B46CDE90A239D
:109B7400CDE90A230A9B0993DDE90A014FF00002AB
:109B84004FF000030A00002313460893099A119B1F
:109B940013440993099A119B9A4234BF0123002369
:109BA400DBB21A46089B13440893019B1B68099A6D
:109BB40013440993019B1B68099A9A4234BF0123F9
:109BC4000023DBB21A46089B13440893089B1193A5
:109BD400019B1A1D0192099A1A60029B1A1D029296
:109BE4001B6818464FF00001009B1A464FF0000313
:109BF40002FB01F500FB03F42C44A0FB0223E11853
:109C04000B46CDE90A23CDE90A230A9B0993DDE932
:109C14000A014FF000024FF000030A00002313462C
:109C24000893099A119B13440993099A119B9A4228
:109C340034BF01230023DBB21A46089B1344089364
:109C4400019B1B68099A13440993019B1B68099A99
:109C54009A4234BF01230023DBB21A46089B134403
:109C64000893089B1193019B1A1D0192099A1A608B
:109C7400029B1A1D02921B6818464FF00001009BBC
:109C84001A464FF0000302FB01F500FB03F42C44D9
:109C9400A0FB0223E1180B46CDE90A23CDE90A23F0
:109CA4000A9B0993DDE90A014FF000024FF000031B
:109CB4000A00002313460893099A119B134409933D
:109CC400099A119B9A4234BF01230023DBB21A463E
:109CD400089B13440893019B1B68099A1344099336
:109CE400019B1B68099A9A4234BF01230023DBB20B
:109CF4001A46089B13440893089B1193019B1A1D51
:109D04000192099A1A60029B1A1D02921B68184656
:109D14004FF00001009B1A464FF0000302FB01F5CF
:109D240000FB03F42C44A0FB0223E1180B46CDE90D
:109D34000A23CDE90A230A9B0993DDE90A014FF0BE
:109D440000024FF000030A00002313460893099A07
:109D5400119B13440993099A119B9A4234BF01231E
:109D64000023DBB21A46089B13440893019B1B682B
:109D7400099A13440993019B1B68099A9A4234BFB8
:109D840001230023DBB21A46089B13440893089B63
:109D94001193019B1A1D0192099A1A60029B1A1DC4
:109DA40002921B6818464FF00001009B1A464FF0C0
:109DB400000302FB01F500FB03F42C44A0FB022387
:109DC400E1180B46CDE90A23CDE90A230A9B09933E
:109DD400DDE90A014FF000024FF000030A000023FE
:109DE40013460893099A119B13440993099A119BEA
:109DF4009A4234BF01230023DBB21A46089B134462
:109E04000893019B1B68099A13440993019B1B68DF
:109E1400099A9A4234BF01230023DBB21A46089BF5
:109E240013440893089B1193019B1A1D0192099AEC
:109E34001A60029B1A1D02921B6818464FF000011B
:109E4400009B1A464FF0000302FB01F500FB03F4EC
:109E54002C44A0FB0223E1180B46CDE90A23CDE9EB
:109E64000A230A9B0993DDE90A014FF000024FF02F
:109E740000030A00002313460893099A119B134414
:109E84000993099A119B9A4234BF01230023DBB240
:109E94001A46089B13440893019B1B68099A1344B0
:109EA4000993019B1B68099A9A4234BF012300233A
:109EB400DBB21A46089B13440893089B1193019B39
:109EC4001A1D0192099A1A60039B083B0393039B92
:109ED400072B3FF6A1AD4DE0029B1A1D02921B68B1
:109EE40018464FF00001009B1A464FF0000302FB96
:109EF40001F500FB03F42C44A0FB0223E1180B46FC
:109F0400CDE90E23CDE90E230E9B0D93DDE90E0161
:109F14004FF000024FF000030A00002313460C9395
:109F24000D9A119B13440D930D9A119B9A4234BFC1
:109F340001230023DBB21A460C9B13440C93019BB0
:109F44001B680D9A13440D93019B1B680D9A9A424A
:109F540034BF01230023DBB21A460C9B13440C9339
:109F64000C9B1193019B1A1D01920D9A1A60039B7D
:109F7400013B0393039B002BAED1109B0133109341
:109F8400019B1A68119B1A44019B1A60019B1B6870
:109F9400119A9A428CBF01230023DBB21193019BD7
:109FA40004330193119B002BEAD100BF00BF12B010
:109FB40030BC704710B58EB003900291019208AB8B
:109FC4001846FEF7B1F805AB1846FEF7ADF8039A4C
:109FD400029B9A420AD108AB02991846FEF788F907
:109FE4000D900D9B002B7CD108AB0293039A019B2F
:109FF4009A420AD105AB01991846FEF779F90D90FA
:10A004000D9B002B6FD105AB0193029B5B680C93F6
:10A014000DE0029B9A680C9B03F18043013B9B007B
:10A0240013441B68002B06D10C9B013B0C930C9B27
:10A03400002BEED100E000BF019B5B680B930DE0A9
:10A04400019B9A680B9B03F18043013B9B001344E3
:10A054001B68002B06D10B9B013B0B930B9B002B26
:10A06400EED100E000BF0C9A0B9B134419460398F1
:10A07400FEF794F80D900D9B002B36D10021039828
:10A08400FEF700FA0D900D9B002B30D10C9B013391
:10A094000C931AE00C9B581E029B9968039B9A68C8
:10A0A4000B9B03F18043013B9B00D418019B9A68EE
:10A0B4000B9B03F18043013B9B0013441B68224626
:10A0C400FEF7E6FF0B9B013B0B930B9B002BE1D1AF
:10A0D400029B1B68019A126802FB03F2039B1A603D
:10A0E40006E000BF04E000BF02E000BF00E000BFE4
:10A0F40005AB1846FEF72AF808AB1846FEF726F813
:10A104000D9B18460EB010BD00B589B003900291A6
:10A114000192012305930123069304AB0793019B4A
:10A12400049305AB1A4602990398FFF743FF0346CD
:10A13400184609B05DF804FB30B589B0039002916C
:10A1440001920093019B002B03D0039A019B9A4236
:10A1540009D3009B002B03D0009B4FF0FF321A6001
:10A164004FF0FF333BE0039B18464FF000014FF0E4
:10A1740000024FF0000303000022CDE90423029BF8
:10A184001A464FF00003DDE9040140EA020441EA03
:10A194000305CDE90445019B1A464FF00003DDE9B0
:10A1A400040149F065FC02460B46CDE90623DDE9CE
:10A1B4000623012B08BF002A05D34FF0FF324FF0CE
:10A1C4000003CDE90623009B002B07D0049A069BCD
:10A1D400019901FB03F3D21A009B1A60069B1846EF
:10A1E40009B030BD70B598B003900291019200930C
:10A1F40000210098FEF710FD0346002B02D16FF0FA
:10A204000B038BE210AB1846FDF78EFF0DAB18461F
:10A21400FDF78AFF0AAB1846FDF786FF07AB184621
:10A22400FDF782FF04AB1846FDF77EFF0099019805
:10A23400FEF7DFFB0346002B19DA039B002B08D043
:10A2440000210398FEF71EF91790179B002B40F08E
:10A254001F82029B002B08D001990298FEF748F850
:10A264001790179B002B40F01582002356E210AB89
:10A2740001991846FEF73CF81790179B002B40F005
:10A284000B820DAB00991846FEF732F81790179B16
:10A29400002B40F0038201230D930D9B1093019B2F
:10A2A4005B689A1C0AAB11461846FDF777FF1790B6
:10A2B400179B002B40F0F4810AAB00211846FEF7EF
:10A2C400E1F81790179B002B40F0EC8107AB0221BB
:10A2D4001846FDF763FF1790179B002B40F0E481AD
:10A2E40004AB03211846FDF759FF1790179B002B69
:10A2F40040F0DC810DAB1846FEF757F9034603F036
:10A304001F031593159B1E2B17D8159BC3F11F0311
:10A31400159310AB15991846FEF72DFA1790179B55
:10A32400002B40F0C5810DAB15991846FEF723FAB2
:10A334001790179B002B02D0DBE100231593119B90
:10A34400013B14930E9B013B1393149A139BD31A52
:10A354005A010DAB11461846FEF70DFA1790179BDC
:10A36400002B40F0A78113E00C9A1499139BCB1A8D
:10A374009B0013441A6801321A600DAA10A910AB8D
:10A384001846FEF71BFE1790179B002B40F0948194
:10A394000DAA10AB11461846FEF7A8FB0346002B86
:10A3A400E2DA149A139BD31A5A010DAB11461846DC
:10A3B400FEF785FA1790179B002B40F07F81149BC2
:10A3C400169329E1129A169B9B0013441A680F995D
:10A3D400139B9B000B441B689A420CD30C9A16994E
:10A3E400139BCB1A03F18043013B9B0013444FF0B2
:10A3F400FF321A6021E0129A169B9B0013441868DE
:10A40400129A169B03F18043013B9B0013441D6881
:10A414000F9A139B9B0013441E680C9A1699139B66
:10A42400CB1A03F18043013B9B00D418002332462E
:10A434002946FFF781FE034623600C9A1699139B65
:10A44400CB1A03F18043013B9B0013441A68013289
:10A454001A600C9A1699139BCB1A03F18043013BA3
:10A464009B0013441A68013A1A6007AB002118468E
:10A47400FEF708F81790179B002B40F02181139BDF
:10A48400002B08D00F9A139B03F18043013B9B00E0
:10A4940013441B6800E00023099A13600F9A139B6E
:10A4A4009B001A44099B043312681A600C9A16998B
:10A4B400139BCB1A03F18043013B9B0013441A689E
:10A4C40007A907AB1846FFF71FFE1790179B002B31
:10A4D40040F0F88004AB00211846FDF7D3FF179035
:10A4E400179B002B40F0F080169B012B08D9129A81
:10A4F400169B03F18043023B9B0013441B6800E05E
:10A504000023069A1360169B002B08D0129A169B00
:10A5140003F18043013B9B0013441B6800E00023CC
:10A52400069A04321360129A169B9B001A44069BE7
:10A53400083312681A6004AA07AB11461846FEF7DE
:10A54400D5FA0346002B84DC0C9A1699139BCB1A7C
:10A5540003F18043013B9B0013441A680DA907AB28
:10A564001846FFF7D1FD1790179B002B40F0AE80E3
:10A57400169A139BD31A013B5A0107AB114618468E
:10A58400FEF7F9F81790179B002B40F0A18007AA5B
:10A5940010A910AB1846FEF711FD1790179B002B5E
:10A5A40040F0988010AB00211846FEF735FB0346B7
:10A5B400002B2EDA0DAA07AB11461846FDF798FEBC
:10A5C4001790179B002B40F08780169A139BD31A81
:10A5D400013B5A0107AB11461846FEF7CCF8179019
:10A5E400179B002B7AD107AA10A910AB1846FEF7C7
:10A5F4009CFC1790179B002B72D10C9A1699139BF5
:10A60400CB1A03F18043013B9B0013441A68013ABF
:10A614001A60169B013B1693169A139B9A423FF6B7
:10A62400D1AE039B002B10D00AAB19460398FDF75B
:10A634005FFE1790179B002B54D1019B1B68009A57
:10A64400126802FB03F2039B1A60029B002B4BD09F
:10A6540010AB15991846FEF732F91790179B002B8B
:10A6640044D1019B1B68109310AB19460298FDF767
:10A674003FFE1790179B002B3AD100210298FEF75A
:10A68400CBFA0346002B2FD1029B01221A6030E043
:10A6940000BF2EE000BF2CE000BF2AE000BF28E08E
:10A6A40000BF26E000BF24E000BF22E000BF20E09E
:10A6B40000BF1EE000BF1CE000BF1AE000BF18E0AE
:10A6C40000BF16E000BF14E000BF12E000BF10E0BE
:10A6D40000BF0EE000BF0CE000BF0AE000BF08E0CE
:10A6E40000BF06E000BF04E000BF02E000BF00E0DE
:10A6F40000BF10AB1846FDF729FD0DAB1846FDF75A
:10A7040025FD0AAB1846FDF721FD07AB1846FDF7FA
:10A714001DFD04AB1846FDF719FD179B184618B02C
:10A7240070BD00B587B00390029101920021019899
:10A73400FEF772FA0346002B02DA6FF0090332E0E7
:10A74400019B029A03990020FFF74CFD0590059B9D
:10A75400002B22D108E0019A03990398FEF7E5FB48
:10A764000590059B002B1AD100210398FEF754FA9B
:10A774000346002BEFDB08E0019A03990398FEF7E8
:10A784001DFC0590059B002B0BD101990398FEF746
:10A79400ADF90346002BEFDA04E000BF02E000BF8E
:10A7A40000E000BF059B184607B05DF804FB86B0C7
:10A7B40001900091009B9B681B680393039B059386
:10A7C400039B02335B0003F00803059A13440593CB
:10A7D400202304930CE0039B059A02FB03F3C3F1CB
:10A7E4000202059B02FB03F30593049B5B0804939D
:10A7F400049B072BEFD8059B5A42019B1A6000BFAC
:10A8040006B0704700B58BB003900291019200939B
:10A814000C9B5A68019B5B6801339A4203D30C9BDF
:10A824009B68002B02D16FF003036FE00C9B9868C8
:10A834000C9B5B689B001A46002149F0B0FD0C9B01
:10A844009B680893019B5B680793029B5B68079A6C
:10A85400934228BF134606930023099330E0039BD9
:10A864009A68099B9B0013441B680593089B1A680C
:10A87400029B9B681B68059901FB03F31A44009B28
:10A8840002FB03F30493029B9968059B089A0698BC
:10A89400FEF7FEFB019B9968049B089A0798FEF754
:10A8A400F7FB089B1A1D0892059A1A60079B01334F
:10A8B4009B00089A134400221A60099B01330993F0
:10A8C400099A079B9A42CAD3039B9868079B013352
:10A8D4009B001A46089949F039FD01990398FEF73F
:10A8E40088F80346002B08DB019B9968039B9B684F
:10A8F4001A460798FEF762FA07E0039B99680C9BD7
:10A904009B681A460798FEF759FA002318460BB0BD
:10A914005DF804FB00B58BB005900491039202939B
:10A9240001230993099B0693069B079309AB08939C
:10A9340006A9029B0093039B049A0598FFF762FF04
:10A94400034618460BB05DF804FB10B5ADF5CE6DAB
:10A9540005AC206004A8016003A90A6002AA136080
:10A964000123CDF84C3602AB00211868FEF754F9E8
:10A974000346002B07DB02AB1B689B681B6803F0D4
:10A984000103002B02D16FF00303BDE303AB0021ED
:10A994001868FEF741F90346002B02DA6FF003034F
:10A9A400B2E302AB0DF23C6219681046FFF7FFFEFA
:10A9B4000DF5C6631846FDF7B7FB0DF22463184680
:10A9C400FDF7B2FB06AB1846FDF7AEFB09AB4FF43F
:10A9D400C0620021184649F0E2FC03AB1868FDF799
:10A9E400E4FDCDF86006DDF86036B3F5287F13D2B8
:10A9F400DDF86036EF2B0DD8DDF860364F2B07D825
:10AA0400DDF86036172B01D9032306E0012304E0A7
:10AA1400042302E0052300E00623CDF86436DDF8C4
:10AA24006436062B02D90623CDF8643602AB1B68C4
:10AA34005B680133CDF8483605ABDDF84816186875
:10AA4400FDF7ACFBCDF86C06DDF86C36002B40F05E
:10AA5400EC8209AB0C33DDF848161846FDF79EFB73
:10AA6400CDF86C06DDF86C36002B40F0E082DDF8A2
:10AA740048365A000DF2246311461846FDF78EFB42
:10AA8400CDF86C06DDF86C36002B40F0D28204ABB6
:10AA94001B681B68B3F1FF3F0CBF01230023DBB22B
:10AAA400CDF84436DDF84436002B12D004AB06AAA8
:10AAB40019681046FDF71CFCCDF86C06DDF86C3601
:10AAC400002B40F0B88206AB01221A6004AB06AA40
:10AAD4001A60DDF87836002B04D0DDF878369B68F0
:10AAE400002B39D10DF5C66301211846FDF7CAFCC8
:10AAF400CDF86C06DDF86C36002B40F09E8202AB7C
:10AB04001B685B689A010DF5C66311461846FDF78C
:10AB140032FECDF86C06DDF86C36002B40F08F82E7
:10AB240002AB0DF5C6610DF5C6601A68FFF7F9FDB5
:10AB3400CDF86C06DDF86C36002B40F08282DDF82F
:10AB44007836002B10D00DF5C6630C221946DDF8BB
:10AB5400780649F0FBFB07E00DF5C6630C22DDF82F
:10AB64007816184649F0F2FB02AA04AB116818687B
:10AB7400FDF7BCFF0346002B0FDB02AA04AB09A9B7
:10AB840001F10C0012681968FFF7CBFDCDF86C06D3
:10AB9400DDF86C36002B0ED074E204AB09AA0C323B
:10ABA40019681046FDF7A4FBCDF86C06DDF86C3689
:10ABB400002B40F04882DDF83C4602AA0DF5C66140
:10ABC40009AB03F10C000DF22463009323461268D1
:10ABD400FFF718FECDF86C06DDF86C36002B40F05C
:10ABE40034820DF5C66205AB11461868FDF780FB8B
:10ABF400CDF86C06DDF86C36002B40F02882DDF8C9
:10AC04003C260DF2246302A905A809680068FFF731
:10AC140081FECDF86C06DDF86C36002B40F019820D
:10AC2400DDF86436012B40F2C980DDF86436013B5F
:10AC3400DDF84C2602FA03F3CDF8483609A9DDF80D
:10AC4400482613465B0013449B00CA1802AB1B68DA
:10AC54005B68013319461046FDF7A0FACDF86C067F
:10AC6400DDF86C36002B40F0F68109A9DDF84826A2
:10AC740013465B0013449B00CA1809AB0C331946F6
:10AC84001046FDF735FBCDF86C06DDF86C36002B6D
:10AC940040F0E3810023CDF8603625E009A9DDF812
:10ACA400482613465B0013449B00C81809A9DDF825
:10ACB400482613465B0013449B001944DDF83C46C8
:10ACC40002AA0DF22463009323461268FFF79AFD4B
:10ACD400CDF86C06DDF86C36002B40F0C081DDF851
:10ACE40060360133CDF86036DDF86436013BDDF8BB
:10ACF40060269A42D2D3DDF848360133CDF8603667
:10AD040052E009A9DDF8602613465B0013449B005A
:10AD1400CA1802AB1B685B68013319461046FDF77D
:10AD24003DFACDF86C06DDF86C36002B40F09981C5
:10AD340009A9DDF8602613465B0013449B00C8187C
:10AD4400DDF860365A1E09A913465B0013449B00C4
:10AD54000B441946FDF7CCFACDF86C06DDF86C36D9
:10AD6400002B40F0808109A9DDF8602613465B00C2
:10AD740013449B00C818DDF83C4602AA09AB03F152
:10AD84000C010DF22463009323461268FFF73AFD89
:10AD9400CDF86C06DDF86C36002B40F06681DDF8EA
:10ADA40060360133CDF86036DDF84C26DDF86436C4
:10ADB40002FA03F3DDF860269A42A2D303AB1B68C0
:10ADC4005B68CDF85C360023CDF858360023CDF807
:10ADD40054360023CDF868360023CDF85036DDF81C
:10ADE4005836002B0CD1DDF85C36002B00F0AE8019
:10ADF400DDF85C36013BCDF85C362023CDF85836BF
:10AE0400DDF85836013BCDF8583603AB1B689A6819
:10AE1400DDF85C369B0013441A68DDF8583622FAD4
:10AE240003F303F00103CDF84036DDF84036002B80
:10AE340004D1DDF85036002B00F08480DDF8403674
:10AE4400002B18D1DDF85036012B14D1DDF83C4627
:10AE540002AA05A905A80DF22463009323461268EB
:10AE640009680068FFF7CEFCCDF86C06DDF86C3697
:10AE7400002B69D006E10223CDF85036DDF85436B4
:10AE84000133CDF85436DDF86426DDF85436D31A90
:10AE9400DDF8402602FA03F3DDF868261343CDF803
:10AEA4006836DDF85426DDF864369A4297D10023DB
:10AEB400CDF8603619E0DDF83C4602AA05A905A8DC
:10AEC4000DF2246300932346126809680068FFF7B3
:10AED40099FCCDF86C06DDF86C36002B40F0C78089
:10AEE400DDF860360133CDF86036DDF86026DDF834
:10AEF40064369A42DFD309A9DDF8682613465B005D
:10AF040013449B001944DDF83C4602AA05A80DF23F
:10AF140024630093234612680068FFF773FCCDF89E
:10AF24006C06DDF86C36002B40F0A380DDF850365B
:10AF3400013BCDF850360023CDF854360023CDF82C
:10AF440068364CE700BF4AE700BF48E700BF00236C
:10AF5400CDF860363CE0DDF83C4602AA05A905A818
:10AF64000DF2246300932346126809680068FFF712
:10AF740049FCCDF86C06DDF86C36002B7BD1DDF88E
:10AF840068365B00CDF86836DDF84C26DDF86436AB
:10AF94009A40DDF868361340002B14D0DDF83C46A7
:10AFA40002AA09AB03F10C0105A80DF22463009376
:10AFB400234612680068FFF725FCCDF86C06DDF81F
:10AFC4006C36002B59D1DDF860360133CDF860368C
:10AFD400DDF86026DDF854369A42BCD3DDF83C2611
:10AFE4000DF2246302A905A809680068FFF792FC22
:10AFF400CDF86C06DDF86C36002B40D1DDF8443614
:10B00400002B3ED005AB1B684FF0FF321A6005AA37
:10B0140002A905AB126809681868FDF786FFCDF828
:10B024006C06DDF86C36002B2BE000BF2AE000BF75
:10B0340028E000BF26E000BF24E000BF22E000BFFC
:10B0440020E000BF1EE000BF1CE000BF1AE000BF0C
:10B0540018E000BF16E000BF14E000BF12E000BF1C
:10B0640010E000BF0EE000BF0CE000BF0AE000BF2C
:10B0740008E000BF06E000BF04E000BF02E000BF3C
:10B0840000E000BFDDF86436013BDDF84C2602FA2F
:10B0940003F3CDF860360FE009A9DDF86026134606
:10B0A4005B0013449B000B441846FDF74FF8DDF892
:10B0B40060360133CDF86036DDF84C26DDF86436B1
:10B0C40002FA03F3DDF860269A42E5D309AB0C33A8
:10B0D4001846FDF73BF80DF224631846FDF736F8E1
:10B0E40006AB1846FDF732F8DDF87836002B04D0AD
:10B0F400DDF878369B68002B04D10DF5C66318463D
:10B10400FDF724F8DDF86C3618460DF5CE6D10BD4C
:10B1140000B591B00390029101920AAB1846FDF775
:10B1240003F807AB1846FCF7FFFF04AB1846FCF71F
:10B13400FBFF07AB02991846FDF7DAF80F900F9B57
:10B14400002B40F0978004AB01991846FDF7D0F826
:10B154000F900F9B002B40F08F8007AB1846FDF734
:10B16400DAF90E9004AB1846FDF7D5F90D900D9A57
:10B174000E9B9A4201D20D9B0E9307AB0E99184673
:10B18400FDF79DFB0F900F9B002B77D104AB0E991D
:10B194001846FDF794FB0F900F9B002B70D10123F1
:10B1A4000493049B07934BE007AB1846FDF7B3F9F0
:10B1B400024607AB11461846FDF781FB0F900F9B23
:10B1C400002B5FD104AB1846FDF7A5F9024604AB8A
:10B1D40011461846FDF773FB0F900F9B002B53D1BC
:10B1E40004AA07AB11461846FDF780FC0346002B62
:10B1F40013DB04AA07A907AB1846FDF737FE0F9027
:10B204000F9B002B42D107AB01211846FDF757FBDA
:10B214000F900F9B002B13D03FE007AA04A904ABA7
:10B224001846FDF723FE0F900F9B002B30D104AB83
:10B2340001211846FDF743FB0F900F9B002B29D1EA
:10B2440007AB00211846FDF7E7FC0346002BABD102
:10B2540004AB0E991846FDF78EFA0F900F9B002B46
:10B264001AD104AB19460398FDF742F80F900F9BCF
:10B27400002B12E000BF10E000BF0EE000BF0CE0A6
:10B2840000BF0AE000BF08E000BF06E000BF04E022
:10B2940000BF02E000BF00E000BF0AAB1846FCF7A5
:10B2A40055FF07AB1846FCF751FF04AB1846FCF7F3
:10B2B4004DFF0F9B184611B05DF804FB10B5ADF5BA
:10B2C400836D03AC206002A8016001A90A606A468C
:10B2D400136002AB1B68B3F5806F02D96FF00303F0
:10B2E4001DE002AA05A9684601AB1B681268006844
:10B2F4009847CDF81404DDF81434002B0CD102AABD
:10B3040005A903AB12681868FDF78FF9CDF814048A
:10B31400DDF81434002B00E000BFDDF814341846C7
:10B324000DF5836D10BD00B5A1B00390029101929B
:10B3340000210198FDF770FC0346002B02DC6FF03E
:10B344000303F2E119AB1846FCF7EEFE16AB184600
:10B35400FCF7EAFE13AB1846FCF7E6FE10AB184602
:10B36400FCF7E2FE1CAB1846FCF7DEFE0DAB1846FC
:10B37400FCF7DAFE0AAB1846FCF7D6FE07AB184614
:10B38400FCF7D2FE04AB1846FCF7CEFE1CAB019AC8
:10B3940002991846FFF7BCFE1F901F9B002B40F03C
:10B3A4006C811CAB01211846FDF736FC0346002BCB
:10B3B40003D06FF00D031F9392E119AB019A029928
:10B3C4001846FFF7AEF91F901F9B002B40F05781E2
:10B3D40019AA16AB11461846FCF78AFF1F901F9B4B
:10B3E400002B40F04E810DAB01991846FCF780FF0D
:10B3F4001F901F9B002B40F046810AAB0199184611
:10B40400FCF776FF1F901F9B002B40F03E8113AB8F
:10B4140001211846FDF736F81F901F9B002B40F0C2
:10B42400368110AB00211846FDF72CF81F901F9BA6
:10B43400002B40F02E8107AB00211846FDF722F8BF
:10B444001F901F9B002B40F0268104AB012118465E
:10B45400FDF718F81F901F9B002B40F01E813FE062
:10B4640016AB01211846FDF72AFA1F901F9B002BEB
:10B4740040F01581159B1B6803F00103002B05D1D7
:10B48400129B1B6803F00103002B15D00DAA13A90E
:10B4940013AB1846FDF749FD1F901F9B002B40F08E
:10B4A400008119AA10A910AB1846FDF787FD1F905B
:10B4B4001F9B002B40F0F78013AB01211846FDF7CA
:10B4C400FEF91F901F9B002B40F0EF8010AB012171
:10B4D4001846FDF7F4F91F901F9B002B40F0E780FE
:10B4E400189B1B6803F00103002BB9D03FE00AABA3
:10B4F40001211846FDF7E3F91F901F9B002B40F034
:10B50400D880099B1B6803F00103002B05D1069B1F
:10B514001B6803F00103002B15D00DAA07A907AB84
:10B524001846FDF702FD1F901F9B002B40F0C380BF
:10B5340019AA04A904AB1846FDF740FD1F901F9BF0
:10B54400002B40F0BA8007AB01211846FDF7B7F98C
:10B554001F901F9B002B40F0B28004AB01211846C2
:10B56400FDF7ADF91F901F9B002B40F0AA800C9BA8
:10B574001B6803F00103002BB9D00AAA16AB1146CD
:10B584001846FDF7B3FA0346002B20DB0AAA16A9D6
:10B5940016AB1846FDF712FD1F901F9B002B40F0C1
:10B5A400928007AA13A913AB1846FDF707FD1F9055
:10B5B4001F9B002B40F0898004AA10A910AB1846E9
:10B5C400FDF7FCFC1F901F9B002B1ED088E016AAE1
:10B5D4000AA90AAB1846FDF7F1FC1F901F9B002B2C
:10B5E40075D113AA07A907AB1846FDF7E7FC1F900E
:10B5F4001F9B002B6DD110AA04A904AB1846FDF7BC
:10B60400DDFC1F901F9B002B65D116AB0021184653
:10B61400FDF702FB0346002B7FF462AF09E007A9A4
:10B6240007AB019A1846FDF780FC1F901F9B002B67
:10B6340053D107AB00211846FDF7EEFA0346002B61
:10B64400EDDB09E007A907AB019A1846FDF7B6FC44
:10B654001F901F9B002B42D107AB01991846FDF7A1
:10B6640045FA0346002BEDDA07AB19460398FCF7BD
:10B674003FFE1F901F9B002B32E000BF30E000BF55
:10B684002EE000BF2CE000BF2AE000BF28E000BF8E
:10B6940026E000BF24E000BF22E000BF20E000BF9E
:10B6A4001EE000BF1CE000BF1AE000BF18E000BFAE
:10B6B40016E000BF14E000BF12E000BF10E000BFBE
:10B6C4000EE000BF0CE000BF0AE000BF08E000BFCE
:10B6D40006E000BF04E000BF02E000BF00E000BFDE
:10B6E40019AB1846FCF732FD16AB1846FCF72EFDD5
:10B6F40013AB1846FCF72AFD10AB1846FCF726FDE1
:10B704001CAB1846FCF722FD0DAB1846FCF71EFDDA
:10B714000AAB1846FCF71AFD07AB1846FCF716FDF2
:10B7240004AB1846FCF712FD1F9B184621B05DF8C8
:10B7340004FB82B00190019B002B03D0019B1B688A
:10B74400002B01D1002302E0019B1B685B691846B2
:10B7540002B0704782B00190019B002B03D0019B83
:10B764001B68002B01D1002309E0019B9B6B002B7C
:10B7740002D0019B9B6B02E0019B1B68DB681846AF
:10B7840002B0704784B001900091019B039304E0E0
:10B79400039B5A1C039200221A70009B5A1E0092AB
:10B7A400002BF5D100BF00BF04B0704784B003463E
:10B7B4008DF807300B4B03930BE0039B1B789DF82C
:10B7C40007209A4202D1039B5B6807E0039B08337E
:10B7D4000393039B5B68002BEFD10023184604B04E
:10B7E400704700BF8C7A070084B0034600918DF83F
:10B7F400073013468DF80630124B03931AE0039B6F
:10B804005B689B691B789DF807209A420FD1039BC4
:10B814005B685A68009B9A4209D1039B5B685B781A
:10B824009DF806209A4202D1039B5B6807E0039BC4
:10B8340008330393039B5B68002BE0D10023184675
:10B8440004B070478C7A070000B583B001904022A1
:10B854000021019848F0A3FD00BF03B05DF804FB8C
:10B8640000B583B00190019B002B10D0019BDB6BD2
:10B87400002B07D0019B1B689B699B69019AD26BC3
:10B884001046984740210198FFF77CFF00E000BF75
:10B8940003B05DF804FB000000B583B00190009193
:10B8A400009B002B02D0019B002B01D10F4B19E010
:10B8B40040220021019848F072FD009B9B695B695E
:10B8C40098470246019BDA63019BDB6B002B01D195
:10B8D400074B07E0019B009A1A600421019800F0CD
:10B8E40051FC0023184603B05DF804FB009FFFFFE2
:10B8F400809EFFFF00B585B00390029101928DF800
:10B904000330039B002B03D0039B1B68002B01D146
:10B91400234B41E0039B1B681B6903F00203002BCC
:10B9240008D1039B1B685B681A46019B934201D0B4
:10B934001B4B31E0039B019A5A60039B9DF8032043
:10B944001A729DF90330012B09D0039B1B685B78A5
:10B95400032B04D0039B1B685B78052B0BD1039B43
:10B964001B689B69DB68039AD06B039A526802993F
:10B974009847034610E09DF90330002B0BD1039B3D
:10B984001B689B691B69039AD06B039A52680299DE
:10B994009847034600E0024B184605B05DF804FBE7
:10B9A400009FFFFF00B587B0039002910192039BB3
:10B9B400002B06D0039B1B68002B02D0029B002B9C
:10B9C40001D1154B23E0019B102B01D9134B1EE031
:10B9D400039B1B681B6903F00103002B02D0019B2E
:10B9E400059309E0039B1B68DB680593059A019B9B
:10B9F4009A4201D9084B0AE0039B2833059A02991D
:10BA0400184648F0A3FC039B059A9A630023184642
:10BA140007B05DF804FB00BF009FFFFF809FFFFF9E
:10BA240082B00190019B002B03D0019B1B68002B6B
:10BA340001D1044B03E0019B00225A620023184603
:10BA440002B07047009FFFFF30B58BB005900491A2
:10BA54000392029300230893059B002B06D0059BB9
:10BA64001B68002B02D00E9B002B01D1914B1EE1D1
:10BA74000E9B00221A600598FFF75BFE0890059B59
:10BA84001B685B78012B1CD1039A089B9A4201D056
:10BA9400894B0CE10E9B039A1A60059B1B689B69FA
:10BAA4005C68059BD86B059B93F90810029B049A6C
:10BAB400A0470790079B002B01D0079BF7E00023CA
:10BAC400F5E0059B1B685B78062B0BD10E9B039A54
